{
  "contractName": "PredictionMarket",
  "abi": [
    {
      "inputs": [
        {
          "internalType": "address",
          "name": "_oracle",
          "type": "address"
        }
      ],
      "stateMutability": "nonpayable",
      "type": "constructor"
    },
    {
      "inputs": [
        {
          "internalType": "address",
          "name": "",
          "type": "address"
        },
        {
          "internalType": "enum PredictionMarket.Side",
          "name": "",
          "type": "uint8"
        }
      ],
      "name": "betAmounts",
      "outputs": [
        {
          "internalType": "uint256",
          "name": "",
          "type": "uint256"
        }
      ],
      "stateMutability": "view",
      "type": "function"
    },
    {
      "inputs": [],
      "name": "isOpen",
      "outputs": [
        {
          "internalType": "bool",
          "name": "",
          "type": "bool"
        }
      ],
      "stateMutability": "view",
      "type": "function"
    },
    {
      "inputs": [],
      "name": "oracle",
      "outputs": [
        {
          "internalType": "address",
          "name": "",
          "type": "address"
        }
      ],
      "stateMutability": "view",
      "type": "function"
    },
    {
      "inputs": [],
      "name": "result",
      "outputs": [
        {
          "internalType": "enum PredictionMarket.Side",
          "name": "winner",
          "type": "uint8"
        },
        {
          "internalType": "enum PredictionMarket.Side",
          "name": "loser",
          "type": "uint8"
        }
      ],
      "stateMutability": "view",
      "type": "function"
    },
    {
      "inputs": [
        {
          "internalType": "enum PredictionMarket.Side",
          "name": "",
          "type": "uint8"
        }
      ],
      "name": "totalBetAmount",
      "outputs": [
        {
          "internalType": "uint256",
          "name": "",
          "type": "uint256"
        }
      ],
      "stateMutability": "view",
      "type": "function"
    },
    {
      "inputs": [
        {
          "internalType": "enum PredictionMarket.Side",
          "name": "_side",
          "type": "uint8"
        }
      ],
      "name": "placeBet",
      "outputs": [],
      "stateMutability": "payable",
      "type": "function"
    },
    {
      "inputs": [],
      "name": "withdrawGain",
      "outputs": [],
      "stateMutability": "nonpayable",
      "type": "function"
    },
    {
      "inputs": [
        {
          "internalType": "enum PredictionMarket.Side",
          "name": "_winner",
          "type": "uint8"
        },
        {
          "internalType": "enum PredictionMarket.Side",
          "name": "_loser",
          "type": "uint8"
        }
      ],
      "name": "reportResult",
      "outputs": [],
      "stateMutability": "nonpayable",
      "type": "function"
    }
  ],
  "bytecode": "0x608060405234801561001057600080fd5b506040516200105138038062001051833981810160405281019061003491906100dd565b806000806101000a81548173ffffffffffffffffffffffffffffffffffffffff021916908373ffffffffffffffffffffffffffffffffffffffff1602179055505061010a565b600080fd5b600073ffffffffffffffffffffffffffffffffffffffff82169050919050565b60006100aa8261007f565b9050919050565b6100ba8161009f565b81146100c557600080fd5b50565b6000815190506100d7816100b1565b92915050565b6000602082840312156100f3576100f261007a565b5b6000610101848285016100c8565b91505092915050565b610f37806200011a6000396000f3fe60806040526004361061007b5760003560e01c8063549543611161004e578063549543611461010757806365372147146101445780637dc0d1d014610170578063faa8fad71461019b5761007b565b80632b539c8614610080578063430468441461009757806347535d7b146100b35780634ec942b7146100de575b600080fd5b34801561008c57600080fd5b506100956101d8565b005b6100b160048036038101906100ac919061089e565b610511565b005b3480156100bf57600080fd5b506100c861067f565b6040516100d591906108e6565b60405180910390f35b3480156100ea57600080fd5b5061010560048036038101906101009190610901565b610692565b005b34801561011357600080fd5b5061012e6004803603810190610129919061099f565b6107e7565b60405161013b91906109f8565b60405180910390f35b34801561015057600080fd5b5061015961080c565b604051610167929190610a8a565b60405180910390f35b34801561017c57600080fd5b50610185610838565b6040516101929190610ac2565b60405180910390f35b3480156101a757600080fd5b506101c260048036038101906101bd919061089e565b61085c565b6040516101cf91906109f8565b60405180910390f35b6000600360003373ffffffffffffffffffffffffffffffffffffffff1673ffffffffffffffffffffffffffffffffffffffff1681526020019081526020016000206000600160000160009054906101000a900460ff1660018111156102405761023f610a13565b5b600181111561025257610251610a13565b5b8152602001908152602001600020549050600081116102a6576040517f08c379a000000000000000000000000000000000000000000000000000000000815260040161029d90610b3a565b60405180910390fd5b600060149054906101000a900460ff16156102f6576040517f08c379a00000000000000000000000000000000000000000000000000000000081526004016102ed90610ba6565b60405180910390fd5b600060026000600160000160019054906101000a900460ff16600181111561032157610320610a13565b5b600181111561033357610332610a13565b5b81526020019081526020016000205460026000600160000160009054906101000a900460ff16600181111561036b5761036a610a13565b5b600181111561037d5761037c610a13565b5b815260200190815260200160002054836103979190610c24565b6103a19190610c55565b826103ac9190610caf565b90506000600360003373ffffffffffffffffffffffffffffffffffffffff1673ffffffffffffffffffffffffffffffffffffffff1681526020019081526020016000206000600160000160009054906101000a900460ff16600181111561041657610415610a13565b5b600181111561042857610427610a13565b5b8152602001908152602001600020819055506000600360003373ffffffffffffffffffffffffffffffffffffffff1673ffffffffffffffffffffffffffffffffffffffff1681526020019081526020016000206000600160000160019054906101000a900460ff1660018111156104a2576104a1610a13565b5b60018111156104b4576104b3610a13565b5b8152602001908152602001600020819055503373ffffffffffffffffffffffffffffffffffffffff166108fc829081150290604051600060405180830381858888f1935050505015801561050c573d6000803e3d6000fd5b505050565b60003411610554576040517f08c379a000000000000000000000000000000000000000000000000000000000815260040161054b90610d77565b60405180910390fd5b600060149054906101000a900460ff166105a3576040517f08c379a000000000000000000000000000000000000000000000000000000000815260040161059a90610de3565b60405180910390fd5b34600260008360018111156105bb576105ba610a13565b5b60018111156105cd576105cc610a13565b5b815260200190815260200160002060008282546105ea9190610caf565b9250508190555034600360003373ffffffffffffffffffffffffffffffffffffffff1673ffffffffffffffffffffffffffffffffffffffff168152602001908152602001600020600083600181111561064657610645610a13565b5b600181111561065857610657610a13565b5b815260200190815260200160002060008282546106759190610caf565b9250508190555050565b600060149054906101000a900460ff1681565b600060149054906101000a900460ff166106e1576040517f08c379a00000000000000000000000000000000000000000000000000000000081526004016106d890610e4f565b60405180910390fd5b60008054906101000a900473ffffffffffffffffffffffffffffffffffffffff1673ffffffffffffffffffffffffffffffffffffffff163373ffffffffffffffffffffffffffffffffffffffff161461076f576040517f08c379a000000000000000000000000000000000000000000000000000000000815260040161076690610ee1565b60405180910390fd5b81600160000160006101000a81548160ff0219169083600181111561079757610796610a13565b5b021790555080600160000160016101000a81548160ff021916908360018111156107c4576107c3610a13565b5b021790555060008060146101000a81548160ff0219169083151502179055505050565b6003602052816000526040600020602052806000526040600020600091509150505481565b60018060000160009054906101000a900460ff16908060000160019054906101000a900460ff16905082565b60008054906101000a900473ffffffffffffffffffffffffffffffffffffffff1681565b60026020528060005260406000206000915090505481565b600080fd5b6002811061088657600080fd5b50565b60008135905061089881610879565b92915050565b6000602082840312156108b4576108b3610874565b5b60006108c284828501610889565b91505092915050565b60008115159050919050565b6108e0816108cb565b82525050565b60006020820190506108fb60008301846108d7565b92915050565b6000806040838503121561091857610917610874565b5b600061092685828601610889565b925050602061093785828601610889565b9150509250929050565b600073ffffffffffffffffffffffffffffffffffffffff82169050919050565b600061096c82610941565b9050919050565b61097c81610961565b811461098757600080fd5b50565b60008135905061099981610973565b92915050565b600080604083850312156109b6576109b5610874565b5b60006109c48582860161098a565b92505060206109d585828601610889565b9150509250929050565b6000819050919050565b6109f2816109df565b82525050565b6000602082019050610a0d60008301846109e9565b92915050565b7f4e487b7100000000000000000000000000000000000000000000000000000000600052602160045260246000fd5b60028110610a5357610a52610a13565b5b50565b6000819050610a6482610a42565b919050565b6000610a7482610a56565b9050919050565b610a8481610a69565b82525050565b6000604082019050610a9f6000830185610a7b565b610aac6020830184610a7b565b9392505050565b610abc81610961565b82525050565b6000602082019050610ad76000830184610ab3565b92915050565b600082825260208201905092915050565b7f596f752068617665206e6f206761696e20746f20776974686472617700000000600082015250565b6000610b24601c83610add565b9150610b2f82610aee565b602082019050919050565b60006020820190508181036000830152610b5381610b17565b9050919050565b7f546865206d61726b6574206973207374696c6c206f70656e0000000000000000600082015250565b6000610b90601883610add565b9150610b9b82610b5a565b602082019050919050565b60006020820190508181036000830152610bbf81610b83565b9050919050565b7f4e487b7100000000000000000000000000000000000000000000000000000000600052601260045260246000fd5b7f4e487b7100000000000000000000000000000000000000000000000000000000600052601160045260246000fd5b6000610c2f826109df565b9150610c3a836109df565b925082610c4a57610c49610bc6565b5b828204905092915050565b6000610c60826109df565b9150610c6b836109df565b9250817fffffffffffffffffffffffffffffffffffffffffffffffffffffffffffffffff0483118215151615610ca457610ca3610bf5565b5b828202905092915050565b6000610cba826109df565b9150610cc5836109df565b9250827fffffffffffffffffffffffffffffffffffffffffffffffffffffffffffffffff03821115610cfa57610cf9610bf5565b5b828201905092915050565b7f42657420616d6f756e74206d7573742062652067726561746572207468616e2060008201527f3000000000000000000000000000000000000000000000000000000000000000602082015250565b6000610d61602183610add565b9150610d6c82610d05565b604082019050919050565b60006020820190508181036000830152610d9081610d54565b9050919050565b7f50726564696374696f6e206d61726b6574206973206e6f74206f70656e000000600082015250565b6000610dcd601d83610add565b9150610dd882610d97565b602082019050919050565b60006020820190508181036000830152610dfc81610dc0565b9050919050565b7f50726564696374696f6e206d61726b65742069732066696e6973686564000000600082015250565b6000610e39601d83610add565b9150610e4482610e03565b602082019050919050565b60006020820190508181036000830152610e6881610e2c565b9050919050565b7f4f6e6c79206f7261636c652063616e207265706f72742074686520726573756c60008201527f7400000000000000000000000000000000000000000000000000000000000000602082015250565b6000610ecb602183610add565b9150610ed682610e6f565b604082019050919050565b60006020820190508181036000830152610efa81610ebe565b905091905056fea26469706673582212203d06a2d1f91e8cc8e468c8ad585bcaf057e0952b04b164c76c1538ddaa4c21da64736f6c634300080a0033",
  "immutableReferences": {},
  "source": "pragma solidity ^0.8.10;\n\ncontract PredictionMarket {\n  address public oracle;\n  bool public isOpen;\n  enum Side { Biden, Trump }\n  struct Result {\n    Side winner;\n    Side loser;\n  }\n\n  Result public result;\n  mapping(Side => uint) public totalBetAmount;\n  mapping(address => mapping(Side => uint)) public betAmounts;\n\n  constructor(address _oracle){\n    oracle = _oracle;\n  }\n\n  function placeBet(Side _side) external payable {\n    require(msg.value > 0, \"Bet amount must be greater than 0\");\n    require(isOpen, \"Prediction market is not open\");\n    totalBetAmount[_side] += msg.value;\n    betAmounts[msg.sender][_side] += msg.value;\n  }\n\n  function withdrawGain() external {\n    uint gamblerBet = betAmounts[msg.sender][result.winner];\n    require(gamblerBet > 0, \"You have no gain to withdraw\");\n    require(!isOpen, \"The market is still open\");\n    uint gain = gamblerBet + gamblerBet/totalBetAmount[result.winner]*totalBetAmount[result.loser];\n    betAmounts[msg.sender][result.winner] = 0;\n    betAmounts[msg.sender][result.loser] = 0;\n    payable(msg.sender).transfer(gain);\n  }\n\n  function reportResult(Side _winner, Side _loser) external {\n    require(isOpen, \"Prediction market is finished\");\n    require(msg.sender == oracle, \"Only oracle can report the result\");\n    result.winner = _winner;\n    result.loser = _loser;\n    isOpen = false;\n  }\n}\n\n",
  "sourcePath": "/Users/mac/Documents/programming/Web3/ElectionPrediction/contracts/PredictionMarket.sol",
  "compiler": {
    "name": "solc",
    "version": "0.8.10+commit.fc410830.Emscripten.clang"
  },
  "schemaVersion": "3.4.3",
  "updatedAt": "2022-01-14T21:30:53.517Z",
  "devdoc": {
    "kind": "dev",
    "methods": {},
    "version": 1
  },
  "userdoc": {
    "kind": "user",
    "methods": {},
    "version": 1
  }
}